:020000020000FC
:1000000000C00FE50DBF02E00EBF0AD01FD08EE882
:1000100090E00DD080E417D080EA90E008D0FFCFC8
:1000200088E317D08CE015D086E013D00895E82F30
:10003000F92FC895002099F0802D02D03196F9CF84
:10004000D99A07D00895806804D0089581E001D03E
:10005000089588BBD89AD898D99809D0089508955A
:1000600026E031E33A95F1F72A95E1F7089524E384
:1000700032EF3A95F1F72A95E1F70000089520ED67
:100080003AEC3A95F1F72A95E1F700000895736587
:100090006C616D617420646174616E6720646900D5
:1000A00070726F6772616D20616273656E73690053
:00000001FF
