:020000020000FC
:1000000008C004C000C01ED040D018952AD03DD0F2
:1000100018950FE50DBF02E00EBF40D055D030D08F
:1000200001E0E02EF02E31D08AE091E03ED080E475
:1000300048D08CE191E039D000EC0BBF0AE005BF5D
:100040007894FFCF0E2D0695002309F404E0E02EEE
:10005000043031F40F2D0695002309F400E1F02E51
:1000600008950E2D000F083009F401E0E02E013054
:1000700031F40F2D000F003209F401E0F02E089545
:100080000FEF04BB00E005BB08950E2D000F000F1D
:10009000000F000F000F0F2905BB089588E317D04C
:1000A0008CE015D086E013D00895E82FF92FC8957D
:1000B000002099F0802D02D03196F9CFD99A07D03F
:1000C0000895806804D0089581E001D0089588BB28
:1000D000D89AD898D99809D00895089526E031E3A0
:1000E0003A95F1F72A95E1F7089524E332EF3A952E
:1000F000F1F72A95E1F70000089520ED3AEC3A95E2
:10010000F1F72A95E1F70000089573656C616D6160
:100110007420646174616E672064690070726F6737
:0C01200072616D20616273656E7369008E
:00000001FF
